{
  "contractName": "Exchange",
  "abi": [
    {
      "anonymous": false,
      "inputs": [
        {
          "indexed": true,
          "internalType": "address",
          "name": "owner",
          "type": "address"
        },
        {
          "indexed": false,
          "internalType": "uint256",
          "name": "price",
          "type": "uint256"
        },
        {
          "indexed": false,
          "internalType": "uint256",
          "name": "amount",
          "type": "uint256"
        },
        {
          "indexed": false,
          "internalType": "uint256",
          "name": "date",
          "type": "uint256"
        }
      ],
      "name": "AskPlaced",
      "type": "event"
    },
    {
      "anonymous": false,
      "inputs": [
        {
          "indexed": true,
          "internalType": "address",
          "name": "owner",
          "type": "address"
        },
        {
          "indexed": false,
          "internalType": "uint256",
          "name": "price",
          "type": "uint256"
        },
        {
          "indexed": false,
          "internalType": "uint256",
          "name": "amount",
          "type": "uint256"
        },
        {
          "indexed": false,
          "internalType": "uint256",
          "name": "date",
          "type": "uint256"
        }
      ],
      "name": "AskRemoved",
      "type": "event"
    },
    {
      "anonymous": false,
      "inputs": [
        {
          "indexed": true,
          "internalType": "address",
          "name": "owner",
          "type": "address"
        },
        {
          "indexed": false,
          "internalType": "uint256",
          "name": "price",
          "type": "uint256"
        },
        {
          "indexed": false,
          "internalType": "uint256",
          "name": "amount",
          "type": "uint256"
        },
        {
          "indexed": false,
          "internalType": "uint256",
          "name": "date",
          "type": "uint256"
        }
      ],
      "name": "BidRemoved",
      "type": "event"
    },
    {
      "inputs": [
        {
          "internalType": "uint256",
          "name": "",
          "type": "uint256"
        }
      ],
      "name": "Asks",
      "outputs": [
        {
          "internalType": "address",
          "name": "owner",
          "type": "address"
        },
        {
          "internalType": "uint256",
          "name": "price",
          "type": "uint256"
        },
        {
          "internalType": "uint256",
          "name": "amount",
          "type": "uint256"
        },
        {
          "internalType": "uint256",
          "name": "date",
          "type": "uint256"
        }
      ],
      "stateMutability": "view",
      "type": "function",
      "constant": true
    },
    {
      "inputs": [
        {
          "internalType": "uint256",
          "name": "",
          "type": "uint256"
        }
      ],
      "name": "Bids",
      "outputs": [
        {
          "internalType": "address",
          "name": "owner",
          "type": "address"
        },
        {
          "internalType": "uint256",
          "name": "price",
          "type": "uint256"
        },
        {
          "internalType": "uint256",
          "name": "amount",
          "type": "uint256"
        },
        {
          "internalType": "uint256",
          "name": "date",
          "type": "uint256"
        }
      ],
      "stateMutability": "view",
      "type": "function",
      "constant": true
    },
    {
      "inputs": [
        {
          "internalType": "uint256",
          "name": "index",
          "type": "uint256"
        }
      ],
      "name": "getBid",
      "outputs": [
        {
          "internalType": "address",
          "name": "",
          "type": "address"
        },
        {
          "internalType": "uint256",
          "name": "",
          "type": "uint256"
        },
        {
          "internalType": "uint256",
          "name": "",
          "type": "uint256"
        },
        {
          "internalType": "uint256",
          "name": "",
          "type": "uint256"
        }
      ],
      "stateMutability": "view",
      "type": "function",
      "constant": true
    },
    {
      "inputs": [
        {
          "internalType": "uint256",
          "name": "index",
          "type": "uint256"
        }
      ],
      "name": "getAsk",
      "outputs": [
        {
          "internalType": "address",
          "name": "",
          "type": "address"
        },
        {
          "internalType": "uint256",
          "name": "",
          "type": "uint256"
        },
        {
          "internalType": "uint256",
          "name": "",
          "type": "uint256"
        },
        {
          "internalType": "uint256",
          "name": "",
          "type": "uint256"
        }
      ],
      "stateMutability": "view",
      "type": "function",
      "constant": true
    },
    {
      "inputs": [
        {
          "internalType": "uint256",
          "name": "_price",
          "type": "uint256"
        },
        {
          "internalType": "uint256",
          "name": "_amount",
          "type": "uint256"
        },
        {
          "internalType": "uint256",
          "name": "timestamp",
          "type": "uint256"
        }
      ],
      "name": "placeBid",
      "outputs": [
        {
          "internalType": "bool",
          "name": "",
          "type": "bool"
        }
      ],
      "stateMutability": "nonpayable",
      "type": "function"
    },
    {
      "inputs": [
        {
          "internalType": "uint256",
          "name": "_price",
          "type": "uint256"
        },
        {
          "internalType": "uint256",
          "name": "_amount",
          "type": "uint256"
        },
        {
          "internalType": "uint256",
          "name": "timestamp",
          "type": "uint256"
        }
      ],
      "name": "placeAsk",
      "outputs": [
        {
          "internalType": "bool",
          "name": "",
          "type": "bool"
        }
      ],
      "stateMutability": "nonpayable",
      "type": "function"
    },
    {
      "inputs": [
        {
          "internalType": "uint256",
          "name": "index",
          "type": "uint256"
        }
      ],
      "name": "removeBid",
      "outputs": [
        {
          "internalType": "uint256",
          "name": "",
          "type": "uint256"
        }
      ],
      "stateMutability": "nonpayable",
      "type": "function"
    },
    {
      "inputs": [
        {
          "internalType": "uint256",
          "name": "index",
          "type": "uint256"
        }
      ],
      "name": "removeAsk",
      "outputs": [
        {
          "internalType": "uint256",
          "name": "",
          "type": "uint256"
        }
      ],
      "stateMutability": "nonpayable",
      "type": "function"
    },
    {
      "inputs": [],
      "name": "getBidsCount",
      "outputs": [
        {
          "internalType": "uint256",
          "name": "",
          "type": "uint256"
        }
      ],
      "stateMutability": "view",
      "type": "function",
      "constant": true
    },
    {
      "inputs": [],
      "name": "getAsksCount",
      "outputs": [
        {
          "internalType": "uint256",
          "name": "",
          "type": "uint256"
        }
      ],
      "stateMutability": "view",
      "type": "function",
      "constant": true
    },
    {
      "inputs": [],
      "name": "clearMarket",
      "outputs": [],
      "stateMutability": "nonpayable",
      "type": "function"
    }
  ],
  "bytecode": "0x608060405234801561000f575f80fd5b506116038061001d5f395ff3fe608060405234801561000f575f80fd5b50600436106100a7575f3560e01c806363505ae81161006f57806363505ae81461018f5780636b42fbaf146101ad57806374cd0c40146101e0578063b320f45914610213578063f0e320f214610243578063fc81587a14610273576100a7565b806328220f35146100ab5780633c889e6f146100db578063542900651461010e57806359c8d3471461012c5780635e62be251461015f575b5f80fd5b6100c560048036038101906100c091906112fe565b61027d565b6040516100d29190611338565b60405180910390f35b6100f560048036038101906100f091906112fe565b6104d7565b6040516101059493929190611390565b60405180910390f35b610116610594565b6040516101239190611338565b60405180910390f35b610146600480360381019061014191906112fe565b6105a0565b6040516101569493929190611390565b60405180910390f35b610179600480360381019061017491906113d3565b6105fa565b604051610186919061143d565b60405180910390f35b6101976109bc565b6040516101a49190611338565b60405180910390f35b6101c760048036038101906101c291906112fe565b6109c7565b6040516101d79493929190611390565b60405180910390f35b6101fa60048036038101906101f591906112fe565b610a88565b60405161020a9493929190611390565b60405180910390f35b61022d600480360381019061022891906112fe565b610ae1565b60405161023a9190611338565b60405180910390f35b61025d600480360381019061025891906113d3565b610d32565b60405161026a919061143d565b60405180910390f35b61027b61113c565b005b5f60018054905082106102975760018054905090506104d2565b600182815481106102ab576102aa611456565b5b905f5260205f2090600402015f015f9054906101000a900473ffffffffffffffffffffffffffffffffffffffff1673ffffffffffffffffffffffffffffffffffffffff167f626b4de2ac3eee70fc8f153bbc5c1df83f3ff1435950cfdc06224ededcd94a316001848154811061032457610323611456565b5b905f5260205f209060040201600101546001858154811061034857610347611456565b5b905f5260205f209060040201600201546001868154811061036c5761036b611456565b5b905f5260205f2090600402016003015460405161038b93929190611483565b60405180910390a260018080805490506103a591906114e5565b815481106103b6576103b5611456565b5b905f5260205f209060040201600183815481106103d6576103d5611456565b5b905f5260205f2090600402015f82015f9054906101000a900473ffffffffffffffffffffffffffffffffffffffff16815f015f6101000a81548173ffffffffffffffffffffffffffffffffffffffff021916908373ffffffffffffffffffffffffffffffffffffffff160217905550600182015481600101556002820154816002015560038201548160030155905050600180548061047857610477611518565b5b600190038181905f5260205f2090600402015f8082015f6101000a81549073ffffffffffffffffffffffffffffffffffffffff0219169055600182015f9055600282015f9055600382015f90555050905560018054905090505b919050565b5f805f805f85815481106104ee576104ed611456565b5b905f5260205f2090600402015f015f9054906101000a900473ffffffffffffffffffffffffffffffffffffffff165f868154811061052f5761052e611456565b5b905f5260205f209060040201600101545f878154811061055257610551611456565b5b905f5260205f209060040201600201545f888154811061057557610574611456565b5b905f5260205f2090600402016003015493509350935093509193509193565b5f600180549050905090565b600181815481106105af575f80fd5b905f5260205f2090600402015f91509050805f015f9054906101000a900473ffffffffffffffffffffffffffffffffffffffff16908060010154908060020154908060030154905084565b5f805f90505b6001805490508110156108c557846001828154811061062257610621611456565b5b905f5260205f209060040201600101541480156106615750826001828154811061064f5761064e611456565b5b905f5260205f20906004020160030154145b156108b2575f610694856001848154811061067f5761067e611456565b5b905f5260205f20906004020160020154611157565b905080600183815481106106ab576106aa611456565b5b905f5260205f2090600402016002015f8282546106c891906114e5565b9250508190555080856106db91906114e5565b94505f600183815481106106f2576106f1611456565b5b905f5260205f209060040201600201540361080e576001828154811061071b5761071a611456565b5b905f5260205f2090600402015f015f9054906101000a900473ffffffffffffffffffffffffffffffffffffffff1673ffffffffffffffffffffffffffffffffffffffff167ffee5f1b0b8e23e84416f7350cc72defc7d92f34a8fd35c13dfb298420ee732156001848154811061079457610793611456565b5b905f5260205f20906004020160010154600185815481106107b8576107b7611456565b5b905f5260205f20906004020160020154600186815481106107dc576107db611456565b5b905f5260205f209060040201600301546040516107fb93929190611483565b60405180910390a261080c8261027d565b505b5f85036108b0576001828154811061082957610828611456565b5b905f5260205f2090600402015f015f9054906101000a900473ffffffffffffffffffffffffffffffffffffffff1673ffffffffffffffffffffffffffffffffffffffff166108fc878361087c9190611545565b90811502906040515f60405180830381858888f193505050501580156108a4573d5f803e3d5ffd5b506001925050506109b5565b505b80806108bd90611586565b915050610600565b506108ce61116f565b33815f019073ffffffffffffffffffffffffffffffffffffffff16908173ffffffffffffffffffffffffffffffffffffffff16815250508481602001818152505083816040018181525050828160600181815250505f81908060018154018082558091505060019003905f5260205f2090600402015f909190919091505f820151815f015f6101000a81548173ffffffffffffffffffffffffffffffffffffffff021916908373ffffffffffffffffffffffffffffffffffffffff160217905550602082015181600101556040820151816002015560608201518160030155505060019150505b9392505050565b5f8080549050905090565b5f805f80600185815481106109df576109de611456565b5b905f5260205f2090600402015f015f9054906101000a900473ffffffffffffffffffffffffffffffffffffffff1660018681548110610a2157610a20611456565b5b905f5260205f2090600402016001015460018781548110610a4557610a44611456565b5b905f5260205f2090600402016002015460018881548110610a6957610a68611456565b5b905f5260205f2090600402016003015493509350935093509193509193565b5f8181548110610a96575f80fd5b905f5260205f2090600402015f91509050805f015f9054906101000a900473ffffffffffffffffffffffffffffffffffffffff16908060010154908060020154908060030154905084565b5f80805490508210610af9575f805490509050610d2d565b5f8281548110610b0c57610b0b611456565b5b905f5260205f2090600402015f015f9054906101000a900473ffffffffffffffffffffffffffffffffffffffff1673ffffffffffffffffffffffffffffffffffffffff167ffee5f1b0b8e23e84416f7350cc72defc7d92f34a8fd35c13dfb298420ee732155f8481548110610b8457610b83611456565b5b905f5260205f209060040201600101545f8581548110610ba757610ba6611456565b5b905f5260205f209060040201600201545f8681548110610bca57610bc9611456565b5b905f5260205f20906004020160030154604051610be993929190611483565b60405180910390a25f60015f80549050610c0391906114e5565b81548110610c1457610c13611456565b5b905f5260205f2090600402015f8381548110610c3357610c32611456565b5b905f5260205f2090600402015f82015f9054906101000a900473ffffffffffffffffffffffffffffffffffffffff16815f015f6101000a81548173ffffffffffffffffffffffffffffffffffffffff021916908373ffffffffffffffffffffffffffffffffffffffff1602179055506001820154816001015560028201548160020155600382015481600301559050505f805480610cd457610cd3611518565b5b600190038181905f5260205f2090600402015f8082015f6101000a81549073ffffffffffffffffffffffffffffffffffffffff0219169055600182015f9055600282015f9055600382015f9055505090555f8054905090505b919050565b5f805f90505b5f80549050811015610ff257845f8281548110610d5857610d57611456565b5b905f5260205f20906004020160010154148015610d965750825f8281548110610d8457610d83611456565b5b905f5260205f20906004020160030154145b15610fdf575f610dc8855f8481548110610db357610db2611456565b5b905f5260205f20906004020160020154611157565b9050805f8381548110610dde57610ddd611456565b5b905f5260205f2090600402016002015f828254610dfb91906114e5565b925050819055508085610e0e91906114e5565b94505f808381548110610e2457610e23611456565b5b905f5260205f2090600402016002015403610f3c575f8281548110610e4c57610e4b611456565b5b905f5260205f2090600402015f015f9054906101000a900473ffffffffffffffffffffffffffffffffffffffff1673ffffffffffffffffffffffffffffffffffffffff167ffee5f1b0b8e23e84416f7350cc72defc7d92f34a8fd35c13dfb298420ee732155f8481548110610ec457610ec3611456565b5b905f5260205f209060040201600101545f8581548110610ee757610ee6611456565b5b905f5260205f209060040201600201545f8681548110610f0a57610f09611456565b5b905f5260205f20906004020160030154604051610f2993929190611483565b60405180910390a2610f3a82610ae1565b505b5f8503610fdd575f8281548110610f5657610f55611456565b5b905f5260205f2090600402015f015f9054906101000a900473ffffffffffffffffffffffffffffffffffffffff1673ffffffffffffffffffffffffffffffffffffffff166108fc8783610fa99190611545565b90811502906040515f60405180830381858888f19350505050158015610fd1573d5f803e3d5ffd5b50600192505050611135565b505b8080610fea90611586565b915050610d38565b50610ffb6111a9565b33815f019073ffffffffffffffffffffffffffffffffffffffff16908173ffffffffffffffffffffffffffffffffffffffff1681525050848160200181815250508381604001818152505082816060018181525050600181908060018154018082558091505060019003905f5260205f2090600402015f909190919091505f820151815f015f6101000a81548173ffffffffffffffffffffffffffffffffffffffff021916908373ffffffffffffffffffffffffffffffffffffffff16021790555060208201518160010155604082015181600201556060820151816003015550503373ffffffffffffffffffffffffffffffffffffffff167fbb9d7122c793a997b64ed4cef253901f39dcea9356e519665a55d8778a8364c886868660405161112793929190611483565b60405180910390a260019150505b9392505050565b5f8061114891906111e3565b60015f6111559190611204565b565b5f8183106111655781611167565b825b905092915050565b60405180608001604052805f73ffffffffffffffffffffffffffffffffffffffff1681526020015f81526020015f81526020015f81525090565b60405180608001604052805f73ffffffffffffffffffffffffffffffffffffffff1681526020015f81526020015f81526020015f81525090565b5080545f8255600402905f5260205f20908101906112019190611225565b50565b5080545f8255600402905f5260205f20908101906112229190611276565b50565b5b80821115611272575f8082015f6101000a81549073ffffffffffffffffffffffffffffffffffffffff0219169055600182015f9055600282015f9055600382015f905550600401611226565b5090565b5b808211156112c3575f8082015f6101000a81549073ffffffffffffffffffffffffffffffffffffffff0219169055600182015f9055600282015f9055600382015f905550600401611277565b5090565b5f80fd5b5f819050919050565b6112dd816112cb565b81146112e7575f80fd5b50565b5f813590506112f8816112d4565b92915050565b5f60208284031215611313576113126112c7565b5b5f611320848285016112ea565b91505092915050565b611332816112cb565b82525050565b5f60208201905061134b5f830184611329565b92915050565b5f73ffffffffffffffffffffffffffffffffffffffff82169050919050565b5f61137a82611351565b9050919050565b61138a81611370565b82525050565b5f6080820190506113a35f830187611381565b6113b06020830186611329565b6113bd6040830185611329565b6113ca6060830184611329565b95945050505050565b5f805f606084860312156113ea576113e96112c7565b5b5f6113f7868287016112ea565b9350506020611408868287016112ea565b9250506040611419868287016112ea565b9150509250925092565b5f8115159050919050565b61143781611423565b82525050565b5f6020820190506114505f83018461142e565b92915050565b7f4e487b71000000000000000000000000000000000000000000000000000000005f52603260045260245ffd5b5f6060820190506114965f830186611329565b6114a36020830185611329565b6114b06040830184611329565b949350505050565b7f4e487b71000000000000000000000000000000000000000000000000000000005f52601160045260245ffd5b5f6114ef826112cb565b91506114fa836112cb565b9250828203905081811115611512576115116114b8565b5b92915050565b7f4e487b71000000000000000000000000000000000000000000000000000000005f52603160045260245ffd5b5f61154f826112cb565b915061155a836112cb565b9250828202611568816112cb565b9150828204841483151761157f5761157e6114b8565b5b5092915050565b5f611590826112cb565b91507fffffffffffffffffffffffffffffffffffffffffffffffffffffffffffffffff82036115c2576115c16114b8565b5b60018201905091905056fea26469706673582212208a59972407540c159cb5c25d773ba5ec23d8e9fb54d858a344a420a6d250445464736f6c63430008150033",
  "immutableReferences": {},
  "source": "// SPDX-License-Identifier: MIT\r\npragma solidity ^0.8.21;\r\n\r\nimport \"../math.sol\";\r\n\r\ncontract Exchange {\r\n    // Define the Bid and Ask structs\r\n    struct Bid {\r\n        address owner; // address of the bidder\r\n        uint256 price; // price per unit of the asset\r\n        uint256 amount; // amount of the asset\r\n        uint256 date; // date of the bid\r\n    }\r\n\r\n    struct Ask {\r\n        address owner; // address of the seller\r\n        uint256 price; // price per unit of the asset\r\n        uint256 amount; // amount of the asset\r\n        uint256 date; // date of the ask\r\n    }\r\n\r\n    Bid[] public Bids; // what buyers are willing to pay\r\n    Ask[] public Asks; // what sellers are willing to take for it\r\n    \r\n    // Define the BidRemoved, AskPlaced, and AskRemoved events\r\n    event BidRemoved(address indexed owner, uint256 price, uint256 amount, uint256 date);\r\n    event AskPlaced(address indexed owner, uint256 price, uint256 amount, uint256 date);\r\n    event AskRemoved(address indexed owner, uint256 price, uint256 amount, uint256 date);\r\n\r\n    // Define the getBid function\r\n    function getBid(uint256 index) public view returns (address, uint256, uint256, uint256) {\r\n        return (\r\n            Bids[index].owner,\r\n            Bids[index].price,\r\n            Bids[index].amount,\r\n            Bids[index].date\r\n        );\r\n    }\r\n  // Define the getAsk function\r\n    function getAsk(uint256 index) public view returns (address, uint256, uint256, uint256) {\r\n        return (\r\n            Asks[index].owner,\r\n            Asks[index].price,\r\n            Asks[index].amount,\r\n            Asks[index].date\r\n        );\r\n    }\r\n// Define the placeBid function\r\n    function placeBid(uint256 _price, uint256 _amount, uint256 timestamp) public returns (bool) {\r\n        for (uint256 i = 0; i < Asks.length; i++) {\r\n            if (Asks[i].price == _price && Asks[i].date == timestamp) {\r\n                // Match found, execute trade\r\n                uint256 amount = Math.min(_amount, Asks[i].amount);//t ensures that the trade amount does not exceed the smaller of the remaining bid amount or the available amount in the ask.\r\n                Asks[i].amount -= amount;\r\n                _amount -= amount;\r\n                if (Asks[i].amount == 0) {\r\n                    emit BidRemoved(Asks[i].owner, Asks[i].price, Asks[i].amount, Asks[i].date);\r\n                    removeAsk(i);\r\n                }\r\n                if (_amount == 0) {\r\n                    // Transfer funds from buyer to seller\r\n                payable(Asks[i].owner).transfer(amount * _price);\r\n                    return true;\r\n                }\r\n            }\r\n        }\r\n        Bid memory b;\r\n        b.owner = msg.sender;\r\n        b.price = _price;\r\n        b.amount = _amount;\r\n        b.date = timestamp;\r\n        Bids.push(b);\r\n        return true;\r\n    }\r\n\r\n    function placeAsk(uint256 _price, uint256 _amount, uint256 timestamp) public returns (bool) {\r\n        for (uint256 i = 0; i < Bids.length; i++) {\r\n            if (Bids[i].price == _price && Bids[i].date == timestamp) {\r\n                // Match found, execute trade\r\n                uint256 amount = Math.min(_amount, Bids[i].amount);\r\n                Bids[i].amount -= amount;\r\n                _amount -= amount;\r\n                if (Bids[i].amount == 0) {\r\n                    emit BidRemoved(Bids[i].owner, Bids[i].price, Bids[i].amount, Bids[i].date);\r\n                    removeBid(i);\r\n                }\r\n                if (_amount == 0) {\r\n                    // Transfer funds from buyer to seller\r\n                payable(Bids[i].owner).transfer(amount * _price);\r\n                    return true;\r\n                }\r\n            }\r\n        }\r\n        Ask memory a;\r\n        a.owner = msg.sender;\r\n        a.price = _price;\r\n        a.amount = _amount;\r\n        a.date = timestamp;\r\n        Asks.push(a);\r\n        emit AskPlaced(msg.sender, _price, _amount, timestamp);\r\n        return true;\r\n    }\r\n// Define the removeBid function\r\n    function removeBid(uint256 index) public returns (uint256) {\r\n        if (index >= Bids.length) return Bids.length;\r\n        emit BidRemoved(Bids[index].owner, Bids[index].price, Bids[index].amount, Bids[index].date);\r\n        Bids[index] = Bids[Bids.length - 1];\r\n        Bids.pop();// Remove the bid from the Bids array\r\n        return Bids.length;\r\n    }\r\n// Define the removeAsk function\r\n    function removeAsk(uint256 index) public returns (uint256) {\r\n        if (index >= Asks.length) return Asks.length;\r\n        emit AskRemoved(Asks[index].owner, Asks[index].price, Asks[index].amount, Asks[index].date);\r\n        Asks[index] = Asks[Asks.length - 1];//replaces the ask at the specified index with the last ask in the Asks array.\r\n        Asks.pop();// Remove the ask from the Asks array\r\n        return Asks.length;\r\n    }\r\n\r\n   // Define the getBidsCount function\r\nfunction getBidsCount() public view returns (uint256) {\r\n    return Bids.length;\r\n}\r\n\r\n// Define the getAsksCount function\r\nfunction getAsksCount() public view returns (uint256) {\r\n    return Asks.length;\r\n}\r\n\r\n// Define the clearMarket function\r\nfunction clearMarket() public {\r\n    delete Bids; // delete all bids\r\n    delete Asks; // delete all asks\r\n}\r\n\r\n}",
  "sourcePath": "P:\\Decentralized-Energy-Trading-using-Blockchain (2)\\truffle\\contracts\\Exchange.sol",
  "compiler": {
    "name": "solc",
    "version": "0.8.21+commit.d9974bed.Emscripten.clang"
  },
  "schemaVersion": "3.4.16",
  "updatedAt": "2023-11-23T09:47:54.090Z",
  "networkType": "ethereum",
  "devdoc": {
    "kind": "dev",
    "methods": {},
    "version": 1
  },
  "userdoc": {
    "kind": "user",
    "methods": {},
    "version": 1
  }
}